:1000000000200010C1000000D1000000D30000005B
:1000100000000000000000000000000000000000E0
:10002000000000000000000000000000D5000000FB
:100030000000000000000000D7000000D90100000F
:10004000DB000000DB000000DB000000DB00000044
:10005000DB000000DB000000DB000000DB00000034
:10006000DB000000DB000000DB000000DB00000024
:10007000DB000000DB000000DB000000DB00000014
:10008000DB000000DB000000DB000000DB00000004
:10009000DB000000DB0000000000000000000000AA
:1000A000DB000000DB000000DB00000000000000BF
:1000B000DB000000DB000000DB000000DB000000D4
:1000C0000148804701480047FD020000E9010000A7
:1000D000FEE7FEE7FEE7FEE7FEE7FEE70C4B82B039
:1000E0009A68196C03230B400CD0012B02D000201E
:1000F00002B070471F20074B10401B68013001936E
:100100005843F5E71F200240034801325043EFE710
:1001100000800440F0040000001BB70003221249D5
:1001200008B50B6F1340022B11D0032B0CD0012B01
:1001300001D00E4808BD0B6C1A40FAD00020012AED
:10014000F8D10B4B1868F5E7FFF7C8FFF2E74B6AE9
:100150001F21DA051940120F064B920001314900A8
:10016000D05800F013F9E5E700800440001BB70009
:10017000F0040000B004000008B5FFF7CFFF024B09
:10018000996F00F003F908BD0080044008B5FFF73F
:10019000F3FF014B186008BD0001001080224023CE
:1001A0000249885803438B507047C0460080044082
:1001B00010B58024090440182402002B05D1012128
:1001C000914003598B43035110BD012191400A1CFA
:1001D00003591A430251F7E7024A136801331360C7
:1001E0007047C04604010010F8B55F4656464D46BC
:1001F0004446F0B4FFF7CAFFFA213B4B8900186868
:1002000000F0C4F8394A01385060C020384900066F
:100210000B6AA0251B021B0A034300240B62072361
:10022000ED059460281C136002210822063BFFF7AD
:10023000BFFF80232F4EDB00F450281C0021062234
:100240009A460123FFF7B4FF80235B00EC50281C83
:10025000002107229946FF3BFFF7AAFF8023802752
:100260009B00EC5009223F01281C022198460123E3
:10027000FFF79EFFF451281CFFF790FF0123BB46B8
:100280009C4600271C4A013463461C1BE4B2FA2139
:10029000002C00D0FA315B464846F7505346F050E8
:1002A000106813681B1A8B42FBD353464020F7504B
:1002B0004B46E850106813681B1A8B42FBD34B4621
:1002C0008020EF504346E850106813681B1A8B4299
:1002D000FBD343464046EF505B46F050106813682E
:1002E0001B1A8B42FBD3CFE70001001010E000E0A7
:1002F00000ED00E000000250040100108E212020DB
:10030000204B89005A5810B582435A5000221A6275
:10031000C823C046013B002BFBD101220120194913
:100320000B644A644B644A644A6C164B1042FBD01F
:1003300023228E2180209A6089005A58012482430A
:100340005A501A1CD1680F4B01200C42FAD00022DF
:10035000186758675A6758675A6F0A491042FBD0A6
:100360008E2380209B00CA58C00002438020CA50C0
:10037000CA5840000243CA500123034A8B677F33A7
:10038000CA5010BD008004405F00010000224308F5
:100390008B4274D303098B425FD3030A8B4244D34D
:1003A000030B8B4228D3030C8B420DD3FF2209028F
:1003B00012BA030C8B4202D31212090265D0030B4E
:1003C0008B4219D300E0090AC30B8B4201D3CB0344
:1003D000C01A5241830B8B4201D38B03C01A524186
:1003E000430B8B4201D34B03C01A5241030B8B4288
:1003F00001D30B03C01A5241C30A8B4201D3CB0273
:10040000C01A5241830A8B4201D38B02C01A524157
:10041000430A8B4201D34B02C01A5241030A8B425A
:1004200001D30B02C01A5241CDD2C3098B4201D372
:10043000CB01C01A524183098B4201D38B01C01AF0
:10044000524143098B4201D34B01C01A5241030967
:100450008B4201D30B01C01A5241C3088B4201D316
:10046000CB00C01A524183088B4201D38B00C01AC3
:10047000524143088B4201D34B00C01A5241411AEA
:1004800000D20146524110467047FFE701B50020F7
:1004900000F00CF802BDC0460029F7D003B5FFF705
:1004A00075FF0EBC4243891A1847C0467047C046C4
:1004B00000000000C027090090051000C05C150076
:1004C000F0B31A00200B2000009F2400E032290026
:1004D000C0C62D0050973100E067350070383900F4
:1004E00000093D004016400080234300C030460014
:0404F000001BB70036
:0804F400CCFBFF7F01000000BA
:0404FC00001BB7002A
:04000003000000C138
:00000001FF
